:0B000300D287D2A5C2A7D2A630870684
:07000E00C2A5D2A580F72274
:0E0015008F80C2A7C2A6D2A5C2A512000322E8
:0E00C7008F80D2A7C2A6D2A5C2A51200032226
:1000D5007F381200157F381200157F381200157F02
:0A00E500061200157F0C1200152210
:1000EF00EBFDEAFCE9F8EDFBECFAE8F912003660FB
:1000FF0015EDFBECFAE8F908E870020CEC1200368B
:07010F00FF1200C780E0228F
:100116008F06EE14600A14600F146014146019221E
:10012600ED247FFF12001522ED24BFFF12001522D9
:10013600ED2493FF12001522ED24D3FF12001522A1
:10014600758AF7758CFFD28C308DFDC28CC28D22DC
:10015600758ACD758CF8D28C308DFDC28CC28D22FD
:0C0026007F011200151201561201562233
:0A0166003098FDAE998E07C2982272
:0F017000D2993099FDC2998F993099FDC2992289
:10017F00EBFDEAFCE9F8D299EDFBECFAE8F9120095
:03018F00366017C0
:100192003099FDC299EDFBECFAE8F9120036F599B7
:0D01A20008E870E10C80DE3099FDC2992262
:1001E7007F017D011201167B057A0179AF1200EFBD
:1001F7007F027D031201167B057A0179BF1200EF9A
:1002070075F00AE522842430FF1200C775F00AE56D
:100217002284E5F02430FF1200C77B057A0179C5F7
:100227001200EF75F00AE521842430FF1200C7752C
:10023700F00AE52184E5F02430FF1200C77F037D33
:10024700021201167B057A0179CD1200EF79128728
:10025700071200C7791387071200C77F2D1200C73F
:10026700791087071200C7791187071200C77F2DFA
:100277001200C77F321200C77F301200C779148778
:10028700071200C7791587071200C77F047D04127C
:1002970001167B057A0179D51200EF7916870712C7
:1002A70000C7791787071200C77F3A1200C7791866
:1002B70087071200C7791987071200C77F3A12000C
:1002C700C7791A87071200C7791B87071200C72249
:1002D70075D90075F90075E90075FA0075EA0075BA
:1002E700DA2175DB31759852758921758DFAD28EB1
:1002F700D2A4C291C2907526121200D51200267F91
:10030700027D041201167B057A0179DC1200EFE405
:10031700FCFD1201560DED70010CBC07F5BDD0F2C6
:100327007935E4FA7B0112017F120166BF0AFA7F71
:100337002E1200C7793EE4FA7B0112017F12016693
:10034700BF0AFA7F2E1200C77947E4FA7B01120130
:100357007F120166BF0AFA7F2E1200C7D2ACD2AE57
:09036700D2AFA2949201752501A8
:07037000E5247003020435CF
:10037700E4F524E525B404028055500EE525146004
:1003870018146025146034020435E52524FB604900
:0903970014605014607902043571
:1003A000E523B440028003020435752502020435BA
:0503B000E523B4400844
:1003B500752503E4F52780787525018073E523B459
:1003C50045057525048069E523B4486475250580D0
:1003D5005FE523B4715A7525068055E523B462504F
:1003E500752507804BE527B40C005011E523642CD7
:1003F500600BE52705272410F8A6238033E527B4ED
:020405000C2EBB
:100407000528752501E528B40224752616801F05E1
:0E04170027E527B42403852322E527B425100A
:100425008523210528E528B40203752616752501BF
:10043500E526B415030204CE5012E52624EE70031A
:100445000204D714603B1460580204D7E52624EA59
:0B045500601E14600614606502037056
:10046000120156120156309404D2018002C2017565
:1004700026120203701201E730010575261380571A
:100480007526140203707918B733137819B6300E35
:10049000781AB63209781BB63904D2008002C2003D
:1004A0007526120203707919E720E00E781AB63229
:1004B00009781BB63904D2008002C20075261202E8
:1004C0000370D291D291C291752612020370D2901C
:0A04D000D290C2907526120203704C
:0504DA00C0D0309808BD
:0B04DF00752401C298859923D0D0320B
:0A04EA00C0E0C0D075D00830D81271
:1004F400C2D8E4F528A2009290A2009290C290750E
:05050400261830D905A6
:0A050900C2D9752617D0D0D0E03219
:100513002C2A40404162000500260D0A0024354084
:10052300404862012B0D0A00243E404045710135CD
:100533000D0A005447404047610739C0EC0FAD3FF7
:0A054300280000BF1C00220D0A0072
:030033000204EADA
:030023000204DAFA
:1001AF0020202020534441532054657374657200FE
:1001BF00564953493A002020545241433A002044B3
:1001CF004154453A200054494D453A2000506C7A2D
:0801DF0020776169742E2E00E7
:030000000200619A
:1000610075815CE478FFF6D8FD900513E493700286
:10007100804EC31392D5C31392D1FFA3E493F8B07A
:10008100D5402130D505E4A393F5A0E420D102A306
:100091009320D507F608DFF3A380D1F208B800F664
:1000A10005A080F2E8030303541F2420F9E8540754
:1000B100F8E4D333B80002800333D8FD47F780D882
:0600C10075A0FF0202D74A
:10003600EB30E11320E00EC083C08289828A83E020
:10004600D082D08322E3226405700EC083C08289E9
:0B005600828A8393D082D08322E722AD
:01054D0000AD
:00000001FF
